:020000040800F2
:1000000000000824A5300008492D0008512D0008E3
:10001000592D0008612D0008692D0008000000001E
:10002000000000000000000000000000712D00082A
:100030007F2D0008000000008D2D00089B2D00087A
:10004000F9300008F9300008F9300008F9300008EC
:10005000F9300008F9300008F9300008F9300008DC
:10006000F9300008F9300008F9300008F9300008CC
:10007000F9300008F9300008F9300008F9300008BC
:10008000F9300008F9300008F9300008F9300008AC
:10009000F9300008F9300008F9300008F93000089C
:1000A000F9300008F9300008F9300008F93000088C
:1000B000F9300008F9300008F9300008F93000087C
:1000C000F9300008F9300008F9300008F93000086C
:1000D000F9300008F9300008F9300008F93000085C
:1000E000F9300008F930000800000000F93000087D
:1000F000F9300008F9300008F9300008F93000083C
:10010000F9300008F9300008F9300008F93000082B
:10011000F9300008F9300008F9300008F93000081B
:10012000F9300008F9300008F9300008F93000080B
:10013000F9300008F9300008F9300008F9300008FB
:1001400000000000000000000000000000000000AF
:10015000F9300008F9300008F9300008F9300008DB
:10016000F9300008F9300008F9300008F9300008CB
:10017000F9300008F9300008F930000800000000EC
:10018000F9300008F9300008F9300008F9300008AB
:10019000F9300008F9300008F9300008F93000089B
:1001A000F9300008F9300008F9300008F93000088B
:1001B000F9300008F9300008F9300008F93000087B
:1001C000F9300008F9300008F9300008F93000086B
:1001D000F9300008F9300008F9300008F93000085B
:1001E000F9300008F9300008F9300008F93000084B
:1001F000F9300008F9300008F9300008F93000083B
:10020000F9300008F9300008F9300008F93000082A
:10021000F9300008F9300008F9300008F93000081A
:10022000F9300008F9300008F9300008000000003B
:10023000F9300008F930000800000000F93000082B
:10024000F9300008F9300008F9300008F9300008EA
:10025000F9300008F9300008F9300008F9300008DA
:10026000F9300008F9300008F9300008F9300008CA
:10027000F9300008F9300008F930000800000000EB
:10028000F9300008F9300008F930000800000000DB
:0802900000000000F930000835
:1002A00010B5054C237833B9044B13B10448AFF3B0
:1002B00000800123237010BD2002002400000000F4
:1002C00060C1000808B5034B1BB103490348AFF3F5
:1002D000008008BD000000002402002460C1000866
:1002E00001F0FF01102A2BDB10F0070F08D010F8E7
:1002F000013B013A8B422DD010F0070F42B3F6D1EB
:10030000F0B441EA012141EA014122F007047FF003
:1003100000070023F0E80256083C85EA010586EA5A
:10032000010685FA47F5A3FA87F586FA47F6A5FA96
:1003300087F68EB9EED1F0BC01F0FF0102F00702A2
:1003400032B110F8013B013A83EA010313B1F8D14D
:100350000020704701387047002D06BF354603382E
:10036000073815F0010F07D1013015F4807F02BF67
:10037000013015F4C03F0130F0BC0138704700BFB8
:10038000034613F8012B002AFBD1181A01387047D5
:1003900053B94AB9002908BF00281CBF4FF0FF31EC
:1003A0004FF0FF3000F06AB9ADF1080C6DE904CEF2
:1003B00000F006F8DDF804E0DDE9022304B0704740
:1003C0002DE9F047089D0C46002B4ED194468C45F4
:1003D0008646B2FA82F262D94AB1C2F12003914054
:1003E00020FA03F30CFA02FC194300FA02FE4FEA6A
:1003F0001C471FFA8CF6B1FBF7F44FEA1E4307FBCC
:10040000141143EA014304FB06F199420AD91CEB9B
:10041000030304F1FF3080F01281994240F20F8112
:10042000023C6344591A1FFA8EF3B1FBF7F007FB45
:10043000101143EA014300FB06F69E420AD91CEB69
:10044000030300F1FF3180F0FC809E4240F2F9800E
:10045000634402389B1B40EA044000211DB1D34095
:100460000022C5E90032BDE8F0878B4205D90DB105
:10047000C5E9000100210846F5E7B3FA83F1002938
:1004800046D1A34202D39042C0F0F080861A64EBBA
:1004900003030120002DE6D0C5E90063E3E7002A4D
:1004A00040F09080A1EB0C044FEA1C481FFA8CF737
:1004B0000121B4FBF8F64FEA1E4308FB164443EA59
:1004C000044307FB06F0984208D91CEB030306F12E
:1004D000FF3402D2984200F2CD8026461C1A1FFA41
:1004E0008EF3B4FBF8F008FB104443EA044300FB2E
:1004F00007F79F4208D91CEB030300F1FF3402D237
:100500009F4200F2B0802046DB1B40EA0640A5E790
:10051000C1F120068B4022FA06F71F4320FA06FCA1
:1005200004FA01F343EA0C03F44000FA01F8380C32
:100530004FEA1349B4FBF0FE1FFA87FC00FB1E4490
:1005400049EA04440EFB0CF9A14502FA01F20AD96A
:100550003C190EF1FF3A80F08480A14540F2818081
:10056000AEF1020E3C44A4EB09041FFA83F9B4FB7C
:10057000F0F300FB134449EA044403FB0CFCA445DC
:1005800007D93C1903F1FF3067D2A44565D9023B76
:100590003C4443EA0E40A0FB0293A4EB0C049C42B3
:1005A000CE469C4651D34ED055B1B8EB0E0364EB0A
:1005B0000C0404FA06F6CB401E43CC40C5E90064A7
:1005C000002150E7C2F1200320FA03F10CFA02FCEB
:1005D00024FA03F394400C434FEA1C4800FA02FE4D
:1005E0001FFA8CF7B3FBF8F008FB1031230C43EA39
:1005F000014300FB07F1994208D91CEB030300F10A
:10060000FF362CD299422AD9023863445B1AA4B22D
:10061000B3FBF8F108FB113344EA034401FB07F391
:10062000A34208D91CEB040401F1FF3613D2A34204
:1006300011D902396444E41A41EA004139E7044619
:10064000F0E6084606E7C845AED2B9EB020E63EB0A
:10065000070C0138A8E73146EDE7034699E7304635
:10066000D4E7D6467FE7634402384DE70646234683
:1006700008460FE7023E634430E700BF704700BF03
:1006800080B586B000AF00F0E3F8034683F00103C5
:10069000DBB2002B01D0002369E000F003F9022156
:1006A000022000F09BF8002000F0BAF8324B93F8DB
:1006B0003C33002B52D0012000F0C8F92F4BD3F867
:1006C000E0302E4A43F48073C2F8E0302B4BD3F86D
:1006D000E03003F480733B603B683B1D00221A60EE
:1006E0005A609A60DA601A614FF480737B604FF44D
:1006F0000413BB600123FB603B1D1946204802F038
:1007000047FF00220021172002F095FE172002F07B
:10071000ACFE194B93F83D33184600F033F9164BF5
:1007200093F83C33022B0AD1012000F05DF9124B03
:10073000D3F84033DBB2184600F002FA0EE0002096
:1007400000F052F90C4BD3F84433184600F0B0F9DE
:10075000094BD3F84833184600F0CEF901220121A5
:10076000002000F011F8074809F0B0FE01231846F8
:100770001837BD4680BD00BF600200240044025807
:100780000020025878C1000880B586B002AF034649
:10079000FB710B46BB7113467B71FB791B01DAB20F
:1007A000BB799B00DBB21344DAB27B795B00DBB22E
:1007B0001344FB7300233B73FB7B7B7307F10C0239
:1007C000642300930223A421034803F051FA00BFDD
:1007D0001037BD4680BD00BFF005002480B586B04F
:1007E00002AF03460A46FB711346BB71FB791B013E
:1007F000DAB2BB791344FB7304233B73FB7B7B733B
:1008000007F10C02642300930223A421034803F0A0
:100810002FFA00BF1037BD4680BD00BFF005002491
:1008200080B586B002AF0346FB7105233B73FB79AD
:100830007B7307F10C02642300930223A421034875
:1008400003F016FA00BF1037BD4680BDF005002446
:1008500080B586B004AF4FF6FF730222A421104882
:1008600003F02EFD0346002B01D0002313E0642388
:10087000029301230193FB1D009301230622A4216F
:10088000074803F003FCFB7903F0F003B02B01D120
:10089000012300E0002318460837BD4680BD00BF95
:1008A000F005002480B586B004AF642302930123D1
:1008B0000193FB1D009301230722A421034803F0A9
:1008C000E5FBFB7918460837BD4680BDF0050024DE
:1008D00080B58AB004AF78604FF6FF730222A4217E
:1008E000274803F0EDFC0346002B10D07B68002264
:1008F000C3F844217B680022C3F848217B680022AA
:10090000C3F84C217B680022C3F8502134E06423F3
:1009100002930C23019307F10C03009301230A2295
:10092000A421174803F0B2FBBB7B1A047B7B1B029C
:1009300013443A7B1A447B68C3F844217B7C1A0435
:100940003B7C1B021344FA7B1A447B68C3F84821A2
:100950003B7D1A04FB7C1B021344BA7C1A447B685F
:10096000C3F84C21FB7D1A04BB7D1B0213447A7D26
:100970001A447B68C3F8502100BF1837BD4680BDBC
:10098000F005002480B588B004AF0346FB7119233D
:10099000BB81642302930123019307F10F030093AA
:1009A00001231922A4210F4803F070FBFB7B5BB2EB
:1009B00023F030035AB2FB791B015BB213435BB2E5
:1009C000DBB2FB73FB7B7B7307F10C0264230093A8
:1009D0000223A421034803F04BF900BF1037BD46A2
:1009E00080BD00BFF005002480B588B004AF034689
:1009F000FB711923BB81642302930123019307F147
:100A00000F03009301231922A4210F4803F03EFB9A
:100A1000FB7B5BB223F008035AB2FB79DB005BB2CD
:100A200013435BB2DBB2FB73FB7B7B7307F10C02FE
:100A3000642300930223A421034803F019F900BFA3
:100A40001037BD4680BD00BFF005002480B588B0DA
:100A500004AF0346FB711923BB8164230293012376
:100A6000019307F10F03009301231922A4210F48DA
:100A700003F00CFBFB7B5BB223F004035AB2FB795F
:100A80009B005BB213435BB2DBB2FB73FB7B7B73FC
:100A900007F10C02642300930223A421034803F00E
:100AA000E7F800BF1037BD4680BD00BFF005002449
:100AB00080B586B002AF786021233B737B68DBB2E0
:100AC0007B737B681B0ADBB2BB737B681B0CDBB2DE
:100AD00003F00F03DBB2FB7307F10C0264230093F6
:100AE0000423A421034803F0C3F800BF1037BD4618
:100AF00080BD00BFF005002480B586B002AF7860ED
:100B000024233B737B68DBB27B737B681B0ADBB2FD
:100B1000BB737B681B0CDBB203F00F03DBB2FB7310
:100B200007F10C02642300930423A421034803F07B
:100B30009FF800BF1037BD4680BD00BFF005002400
:100B400080B586B002AF0346FB7127233B73FB7968
:100B500003F00703DBB27B7307F10C0264230093FD
:100B60000223A421034803F083F800BF1037BD46D9
:100B700080BD00BFF005002480B588B000AF0F2015
:100B800000F026FB00F0DEF80346FB77FB7F6A2BC4
:100B90002BD00A2000F01CFB00F0D4F80346FB77B2
:100BA000FB7F6A2B21D0604806F092FF0A2000F0FC
:100BB0000FFB5D4B00221A615B4B00225A615A48C1
:100BC00006F062FE0346002B01D000F0E5FD00F0C8
:100BD000B9F80346FB77FB7F6A2B06D0FB7F1946EB
:100BE000524809F00BFC00239AE03023BB7707F151
:100BF0001E0301221946102000F06AFA1023BB7769
:100C000007F11E0301221946112000F061FA442366
:100C1000BB7707F11E0301221946122000F058FA93
:100C20000223BB7707F11E0301221946132000F0AF
:100C30004FFA0023BB7707F11E0301221946142047
:100C400000F046FA1023BB7707F11E030122194674
:100C5000152000F03DFA0023BB7707F11E030122A7
:100C60001946162000F034FA07F11E030122194636
:100C7000172000F02DFA07F11E0301221946182053
:100C800000F026FA07F11E0301221946192000F090
:100C90001FFA00F079F900F087F9254B93F84D33EE
:100CA000002B39D0234809F011FC234BD3F8E03056
:100CB000214A43F48073C2F8E0301F4BD3F8E03090
:100CC00003F480737B607B6807F1080300221A60DD
:100CD0005A609A60DA601A614FF44063BB604FF467
:100CE0008813FB6000233B6107F108031946134892
:100CF00002F04EFC00220021282002F09CFB28205C
:100D000002F0B3FB0A4B93F84F33094A92F84E2393
:100D10001146184600F058F9094809F0D7FB01239D
:100D200018462037BD4680BD44060024A0C10008F7
:100D300060020024E0C1000800440258002002586C
:100D400034C2000880B582B000AFFB1D01221946F5
:100D50000F2000F0FDF9FB7918460837BD4680BD2D
:100D600080B582B000AFFB1D012219461E2000F0A5
:100D7000EFF9FB7918460837BD4680BD80B582B0D3
:100D800000AF7860786800F009F8786800F088F8BB
:100D9000012318460837BD4680BD000080B586B0E7
:100DA00000AF786007F1080300221A609A80FFF70D
:100DB000D7FF034603F00203002B10D17B684FF0EE
:100DC0000002C3F860217B684FF00002C3F8642181
:100DD0007B684FF00002C3F86821002358E007F158
:100DE000100306221946222000F0B2F97B7C1B0278
:100DF0009BB23A7C13449BB21BB2BB81FB7C1B02AF
:100E00009BB2BA7C13449BB21BB27B817B7D1B02DD
:100E10009BB23A7D13449BB21BB23B81B7F90C30B5
:100E200007EE903AB8EEE77A1B4BD3ED007A27EE47
:100E3000277A1A4BD3ED037A77EE677A7B68C3ED96
:100E4000587AB7F90A3007EE903AB8EEE77A124BC3
:100E5000D3ED007A27EE277A104BD3ED047A77EEA4
:100E6000677A7B68C3ED597AB7F9083007EE903A94
:100E7000B8EEE77A084BD3ED007A27EE277A074BD6
:100E8000D3ED057A77EE677A7B68C3ED5A7A012352
:100E900018461837BD4680BD3C0200244402002499
:100EA00080B586B000AF786007F1080300221A60B1
:100EB0009A80FFF755FF034603F00103002B01D191
:100EC000002358E007F1100306221946282000F0FD
:100ED0003FF97B7C1B029BB23A7C13449BB21BB252
:100EE000BB81FB7C1B029BB2BA7C13449BB21BB23E
:100EF0007B817B7D1B029BB23A7D13449BB21BB26C
:100F00003B81B7F90C3007EE903AB8EEE77A1C4B0C
:100F1000D3ED007A27EE277A1A4BD3ED007A77EEDD
:100F2000677A7B68C3ED557AB7F90A3007EE903AD5
:100F3000B8EEE77A124BD3ED007A27EE277A114B01
:100F4000D3ED017A77EE677A7B68C3ED567AB7F90D
:100F5000083007EE903AB8EEE77A094BD3ED007A05
:100F600027EE277A074BD3ED027A77EE677A7B6814
:100F7000C3ED577A012318461837BD4680BD00BF20
:100F8000400200244402002480B400AF044B054A10
:100F90001A6000BF00BFBD465DF8047B704700BF0C
:100FA0003C02002400000C4180B400AF044B054A11
:100FB0001A6000BF00BFBD465DF8047B704700BFEC
:100FC0004002002423DB793D80B586B000AF0346A4
:100FD0000A46FB711346BB710023FB730023BB73EE
:100FE000FB795B0207EE903AF8EEE76A354B93ED3A
:100FF000037AC6EE877AC7ED057ABB7907EE903A99
:10100000B8EEE77A304BD3ED007A27EE277ADFEDA2
:101010002F6AC7EE267AC7ED047AFB7903F00F0337
:10102000DBB2FB7307F10F03012219465C2000F0CD
:101030004FF8BB7903F03F03DBB2FB7307F10F03FB
:10104000012219465B2000F043F8E123FB7307F10E
:101050000F0301221946582000F03AF807F10E0359
:1010600001221946582000F073F8BB7BE12B08D011
:10107000E123FB7307F10F0301221946582000F00A
:1010800027F88023FB7307F10F03012219465F2025
:1010900000F01EF807F10E03012219465F2000F050
:1010A00057F8BB7B802B08D08023FB7307F10F031D
:1010B000012219465F2000F00BF800BF1837BD462B
:1010C00080BD00BF000000243800002400008042E2
:1010D00080B584B000AF03463960FB711346BB7125
:1010E000BB790133184608F0D1FB0346FB60FA795F
:1010F000FB681A70FB680133BA793968184609F041
:1011000054FB002202210F4802F0FCFCBB799BB289
:1011100001339AB26423F9680B4806F003FD0346D5
:10112000002B02D0094809F0D1F90122022105481B
:1011300002F0E8FCF86808F0B1FB00BF1037BD46CC
:1011400080BD00BF002802584406002408C30008E0
:1011500080B584B000AF03463960FB711346BB71A4
:10116000FB7963F07F03DBB2FB730022022114489A
:1011700002F0C8FC0A2000F02BF807F10F016423ED
:101180000122104806F0CEFC0346002B02D00E4888
:1011900009F09CF9BB799AB264233968094806F0D2
:1011A000AFFE0346002B02D0084809F08FF9012258
:1011B0000221034802F0A6FC00BF1037BD4680BDE7
:1011C000002802584406002424C300083CC3000839
:1011D00080B582B000AF7860786802F021F800BF77
:1011E0000837BD4680BD000080B582B000AF786092
:1011F000391D4FF6FF730122034807F02CFA7B6874
:1012000018460837BD4680BDCC06002480B58CB09A
:101210000AAF00F095FA01F071FF00F0E1F800F07C
:101220002DFA00F049F900F087F900F0DBF9FFF73B
:1012300027FA034683F00103DBB2002B02D05E489D
:1012400009F044F900F0FEFD034683F00103DBB230
:10125000002B02D0594809F039F900F0A3FA0346EF
:1012600083F00103DBB2002B02D0554809F02EF9C0
:10127000FFF782FC034683F00103DBB2002B02D0B0
:10128000504809F023F9504B3B600423FB7189E07F
:101290004E4800F015FB4D4800F062FB4B4800F053
:1012A000A3FB4A4800F0D0FE484801F0B1FA474895
:1012B000FFF70EFB4548FFF761FD444BD3ED587A2D
:1012C000B7EEE72A414BD3ED597AB7EEE77A3F4BB9
:1012D000D3ED5A6AB7EEE66A3C4BD3ED555AB7EEFA
:1012E000E55A3A4BD3ED564AB7EEE44A374BD3EDC5
:1012F000573AB7EEE33A8DED083B8DED064B8DED99
:10130000045B8DED026B8DED007B53EC122B3048AE
:1013100009F074F82D4BD3ED5E7AB7EEE75A2B4BFC
:10132000D3ED5F7AB7EEE77A284BD3ED606AB7EE7C
:10133000E66A8DED026B8DED007B53EC152B254895
:1013400009F05CF8214BD3ED5C7AB7EEE75A1F4BFE
:10135000D3ED5B7AB7EEE77A1C4BD3ED5D6AB7EE5F
:10136000E66A8DED026B8DED007B53EC152B1A4870
:1013700009F044F8154BD3F85011144BD3F8482119
:10138000124BD3F84C01114BD3F844310093034670
:10139000124809F033F84FF47A7001F041FFFB79FD
:1013A000013BFB71FB79002B7FF472AF00231846E1
:1013B0000837BD4680BD00BF54C300086CC3000899
:1013C00084C300089CC30008B4C30008600700245D
:1013D000C4C3000814C400083CC4000864C4000866
:1013E00080B59CB000AF07F124034C2200211846C1
:1013F00009F04CF93B1D20220021184609F046F95E
:10140000022003F0F5FB00233B60294BDB6A284AEE
:1014100023F00103D362264BDB6A03F001033B6038
:10142000244B9B6923F44043224A43F48043936155
:10143000204B9B6903F440433B603B6800BF1D4B5E
:101440009B6903F40053B3F5005FF8D102237B627C
:1014500001233B6340237B630023BB6407F1240328
:10146000184603F0FFFB0346002B01D000F094F96F
:101470003F237B600023BB600023FB6000233B61B4
:1014800000237B614023BB614FF48063FB61002339
:101490003B623B1D0121184604F03EF80346002B39
:1014A00001D000F079F900BF7037BD4680BD00BFA4
:1014B000000400580048025880B500AF1B4B1C4A7E
:1014C0001A601A4B1B4A5A60184B00229A60174B3D
:1014D0000122DA60154B00221A61144B00225A6176
:1014E000124B00229A61114B0022DA610F4B00224D
:1014F0001A620E4802F020FB0346002B01D000F0D8
:101500004BF90021094803F0DBFA0346002B01D018
:1015100000F042F90021054803F01DFB0346002BB3
:1015200001D000F039F900BF80BD00BFF0050024F4
:10153000005C0040BB7C700080B500AF274B284AA0
:101540001A60264B4FF480025A60244B00229A60A6
:10155000224B0722DA60214B4FF000721A611F4BB9
:1015600000225A611D4B4FF080629A611B4B002292
:10157000DA611A4B00221A62184B00225A62174B8A
:1015800000229A62154B0022DA62144B00225A6341
:10159000124B00229A63114B0022DA630F4B002298
:1015A0001A640E4B00225A640C4B00229A640B4BB7
:1015B0000022DA64094B00221A65084B00225A65A2
:1015C000064B00229A65054806F05EF90346002B9B
:1015D00001D000F0E1F800BF80BD00BF4406002448
:1015E0000050014080B500AF224B234A1A60214BC6
:1015F0004FF4E1325A601F4B00229A601D4B0022CB
:10160000DA601C4B00221A611A4B0C225A61194BEA
:1016100000229A61174B0022DA61164B00221A62EF
:10162000144B00225A62134B00229A62114806F0B2
:10163000C2FF0346002B01D000F0AEF800210D4898
:1016400008F059F80346002B01D000F0A5F800215E
:10165000084808F08EF80346002B01D000F09CF8F3
:10166000044808F00FF80346002B01D000F094F86E
:1016700000BF80BDCC060024007C004080B58AB04D
:1016800000AF07F1140300221A605A609A60DA6012
:101690001A61294BD3F8E030274A43F00103C2F81E
:1016A000E030254BD3F8E03003F001033B613B69A8
:1016B000214BD3F8E030204A43F48063C2F8E03095
:1016C0001D4BD3F8E03003F48063FB60FB681A4BDA
:1016D000D3F8E030184A43F40073C2F8E030164BF8
:1016E000D3F8E03003F40073BB60BB68124BD3F84F
:1016F000E030114A43F08003C2F8E0300E4BD3F8DB
:10170000E03003F080037B607B68002202210B48FD
:1017100002F0F8F902237B610123BB610023FB6126
:1017200000233B6207F114031946044801F030FF1F
:1017300000BF2837BD4680BD00440258002802582B
:1017400080B584B000AF3B4600221A605A609A60B0
:10175000DA6001F0A5FE01233B7000237B700023BB
:101760007B601F233B7287237B720023BB720023A5
:10177000FB7201233B7301237B730023BB730023A4
:10178000FB733B46184601F0C3FE042001F0A0FEA7
:1017900000BF1037BD4680BD80B400AF72B600BF39
:1017A00000BFFDE780B588B000AF00F071F80346D8
:1017B000FB77FB7F0C2B01D000235CE0304B93F8D0
:1017C0003633002B53D02F4BD3F8E0302D4A43F45F
:1017D0008073C2F8E0302B4BD3F8E03003F4807311
:1017E0003B603B683B1D00221A605A609A60DA60D9
:1017F0001A614FF400537B604FF40413BB60012364
:10180000FB603B1D1946204801F0C2FE002200216A
:10181000282001F010FE282001F027FE00F07CFABD
:101820000346BB834FF47C5000F0A4FA012000F083
:10183000D5FA134B93F83833184600F039FA104BA9
:1018400093F83933184600F001FA0D4B93F837330B
:10185000C3F12003FB76FB7E184600F069F9084BC4
:1018600093F83A33184600F02FF900F097F907483B
:1018700008F02CFE012318462037BD4680BD00BF6E
:1018800060020024004402580020025890C400085E
:1018900080B586B004AF0023BB800A2302930223E5
:1018A00001933B1D0093012318226C21034802F091
:1018B000EDFB7B7918460837BD4680BDF005002456
:1018C00080B586B002AF78600023BB8102233B72F3
:1018D00007F108026423009301236C211E4802F0E3
:1018E000C7F907F10C026423009302236C211A4804
:1018F00002F0D6FA0346FB73FB7B002B0AD0FB7B7E
:101900001946164808F07AFD7B684FF00002C3F8CC
:10191000782114E03B7B1B027A7B134407EE903A5C
:10192000B8EEE77B9FED086B27EE066B9FED085B3B
:1019300086EE057BF7EEC77B7B68C3ED5E7A00BF62
:101940001037BD4680BD00BF000000000088534036
:101950000000000080842E41F0050024B8C4000877
:1019600080B586B002AF78600023BB8104233B7250
:1019700007F108026423009301236C21184802F048
:1019800077F907F10C026423009302236C211448B9
:1019900002F086FA0346FB73FB7B002B05D07B68C5
:1019A0004FF00002C3F87C2110E03B7B1B027A7BE6
:1019B000134407EE903AB8EEE76B9FED075B86EEB7
:1019C000057BF7EEC77B7B68C3ED5F7A00BF1037FE
:1019D000BD4680BDAFF300800000000000007040F5
:1019E000F00500240000000080B586B002AF7860EA
:1019F00016233B7207F108026423009301236C2134
:101A0000194802F035F907F10C0264230093022310
:101A10006C21154802F044FA0346FB73FB7B002B54
:101A200005D07B684FF00002C3F8802113E03B7BB8
:101A30001B029BB27A7B13449BB21BB207EE903A17
:101A4000B8EEE77B9FED066B27EE067BF7EEC77BD4
:101A50007B68C3ED607A00BF1037BD4680BD00BF14
:101A600039B4C876BE9FCA3FF005002480B586B061
:101A700002AF0C233B710023FB813A1D64230093CA
:101A800001236C210F4802F0F3F807F108026423E8
:101A9000009302236C210B4802F002FA03467B7389
:101AA0007B7B002B02D00023FB8105E03B7A1B02ED
:101AB0009BB27A7A1344FB81FB8918461037BD46E6
:101AC00080BD00BFF005002480B586B002AF03469C
:101AD000FB71FFF7CBFF0346FB81FB8923F040033B
:101AE000FB81FB799B011AB2B7F90E3013431BB28D
:101AF000FB810C233B72FB891B0A9BB2DBB27B721E
:101B0000FB89DBB2BB7207F108020A2300930323AF
:101B10006C21064802F0ACF80346002B01D00023EC
:101B200000E0012318461037BD4680BDF0050024B3
:101B300080B586B002AF0346FB71FFF797FF0346FF
:101B4000FB81FB8923F01F03FB81FB791BB203F0B0
:101B50001F031AB2B7F90E3013431BB2FB810C23DB
:101B60003B72FB891B0A9BB2DBB27B72FB89DBB247
:101B7000BB7207F108020A23009303236C21064875
:101B800002F076F80346002B01D0002300E0012389
:101B900018461037BD4680BDF005002480B584B0DE
:101BA00002AFFFF763FF0346FB80FB8823F02003AF
:101BB000FB800C233B70FB881B0A9BB2DBB27B7063
:101BC000FB88DBB2BB703A460A23009303236C21E7
:101BD000064802F04DF80346002B01D0002300E038
:101BE000012318460837BD4680BD00BFF00500241C
:101BF00080B586B002AF14233B710023FB813A1DF0
:101C00006423009301236C210F4802F031F807F19F
:101C100008026423009302236C210B4802F040F970
:101C200003467B737B7B002B02D00023FB8105E006
:101C30003B7A1B029BB27A7A1344FB81FB891846DC
:101C40001037BD4680BD00BFF005002480B586B0CA
:101C500002AF0346FB71FFF7CBFF0346FB81FB8915
:101C600023F0FF03FB81FB799AB2FB891343FB81CD
:101C700014233B72FB891B0A9BB2DBB27B72FB898C
:101C8000DBB2BB7207F108020A23009303236C2125
:101C9000064801F0EDFF0346002B01D0002300E0D1
:101CA000012318461037BD4680BD00BFF005002453
:101CB00080B586B002AF0346FB71FFF799FF03467C
:101CC000FB81FB89DBB2FB81FB791B021AB2B7F9FE
:101CD0000E3013431BB2FB8114233B72FB891B0A9A
:101CE0009BB2DBB27B72FB89DBB2BB7207F10802ED
:101CF0000A23009303236C21064801F0B9FF034631
:101D0000002B01D0002300E0012318461037BD4608
:101D100080BD00BFF005002480B586B002AF1A2355
:101D20003B710023FB813A1D6423009301236C2146
:101D30000F4801F09DFF07F108026423009302237E
:101D40006C210B4802F0ACF803467B737B7B002BC5
:101D500002D00023FB8105E03B7A1B029BB27A7A1A
:101D60001344FB81FB8918461037BD4680BD00BF78
:101D7000F005002480B586B002AF0346FB80FFF774
:101D8000CBFF0346FB81FB8803F47C539BB2DB4310
:101D90009BB21AB2B7F90E3013401BB2FB811A2363
:101DA0003B72FB891B0A9BB2DBB27B720023BB72C6
:101DB00007F108020A23009303236C21064801F06F
:101DC00057FF0346002B01D0002300E001231846F3
:101DD0001037BD4680BD00BFF005002480B586B039
:101DE00002AF0346FB71FFF797FF0346FB81FB89B8
:101DF00023F48043FB81FB799B031AB2B7F90E30C1
:101E000013431BB2FB811A233B72FB891B0A9BB253
:101E1000DBB27B720023BB7207F108020A23009336
:101E200003236C21064801F023FF0346002B01D059
:101E3000002300E0012318461037BD4680BD00BFD7
:101E4000F005002480B582B000AF00F049F84FF4EF
:101E50007A730222EC211C4802F032FA0346002B6E
:101E600004D01A4808F0CAFA002329E04FF47A7324
:101E700002228021144802F023FA0346002B04D0EA
:101E8000134808F0BBFA00231AE0124800F05EF88D
:101E9000034683F00103DBB2002B04D00E4808F0A8
:101EA00015FB00230CE000F061FC0346FB710022EF
:101EB0000021012000F028FC084808F007FB01235E
:101EC00018460837BD4680BDF005002428C5000827
:101ED00064C5000800090024A0C50008C0C50008AA
:101EE00080B584B002AF1E23FB71FA1D64230093FA
:101EF0000123EC21034801F0BBFE00BF0837BD46BB
:101F000080BD00BFF005002480B586B002AF034657
:101F1000FB71FA1D642300930123EC210A4801F0B0
:101F2000A7FE07F10C02642300930223EC2106486C
:101F300001F0B6FF3B7B1B029BB27A7B13449BB242
:101F400018461037BD4680BDF005002480B588B026
:101F500000AF7860A020FFF7D7FF0346BB81A22027
:101F6000FFF7D2FF0346FB81A420FFF7CDFF034616
:101F70003B82A620FFF7C8FF03467B82A820FFF71D
:101F8000C3FF0346BB82AA20FFF7BEFF0346FB82C6
:101F9000AC20FFF7B9FF03463B83BB891B0B9BB209
:101FA000FB7707F10C03184600F08EFC0346BB7765
:101FB000BA7FFB7F9A4207D0FB7FBA7F1946084859
:101FC00008F01CFA002307E007F10C031022194661
:101FD000786808F0EAFB012318462037BD4680BD2B
:101FE00000C6000880B586B002AF0346FB71FA1D3B
:101FF000642300930123EC21124801F039FE0120F3
:10200000FFF7E6F80023FB7307F10F026423009348
:102010000123EC210B4801F02BFE07F10C02642395
:1020200000930323EC21074801F03AFF3B7B1A049D
:102030007B7B1B021344BA7B134418461037BD4602
:1020400080BD00BFF00500242DE9B04FE6B000AF21
:10205000C7F854014FF47A730222EC21054802F0CC
:102060002FF90346002B09D0034808F0C7F90023D5
:1020700043E300BFF005002438C600084020FFF706
:10208000B1FFC7F87C015020FFF7ACFFC7F878011B
:10209000D7F87821D94B5B891B02D31AC7F8743162
:1020A000D7F87431DA179A469346D44B9B899BB282
:1020B00000229846914608FB0BF20AFB09F31344F1
:1020C000AAFB08452B441D464FF000024FF00003C9
:1020D000E20D42EA4522EB15134603F5FA63C7F811
:1020E0007031C64B9B889BB20022C7F81031C7F8ED
:1020F0001421D7E944120B46DB0BC7F80C310B4611
:102100005B04C7F80831BD4B1B891A46D7F87431F8
:1021100002FB03F39B11DA17C7F80031C7F804215B
:10212000D7E942452346D7E9400102469B183B6464
:102130000B462A4642EB03037B64D7E91034C7E918
:102140005A34AE4B5B889BB20022C7F8F830C7F810
:10215000FC20D7E93E120B461B0CC7F8F4300B46A7
:102160001B04C7F8F030A54BDB881A46D7F874314A
:1021700002FB03F3DB11DA17C7F8E830C7F8EC20ED
:10218000D7E93C452346D7E93A0102469B18BB6391
:102190000B462A4642EB0303FB63D7E90E34C7E93B
:1021A0005834D7F87031B3F5FA6F80F2D081D7F890
:1021B0007431DA17C7F8E030C7F8E420D7F8743183
:1021C000DA17C7F8D830C7F8DC20D7E938452B46EE
:1021D000D7E93689424602FB03F24B46214601FB12
:1021E00003F3134422464146A2FB0112C7F84C21D7
:1021F0000A46C7F84821D7F84C211344C7F84C3198
:10220000D7E9524522462B46911839635B417B63DF
:10221000D7E90C2321465118C7F8D010294643EBC3
:102220000101C7F8D4104FF000024FF00003D7E9C6
:10223000344529464A102946CB171346C7F894312E
:10224000D7F87031A3F5FA63DA17C7F8C830C7F8C2
:10225000CC20D7F87031A3F5FA63DA17C7F8C0308D
:10226000C7F8C420D7E932452B46D7E93089424622
:1022700002FB03F24B46214601FB03F313442246C3
:102280004146A2FB0112C7F844210A46C7F8402183
:10229000D7F844211344C7F84431D7E950452246C2
:1022A0002B464FF000004FF00001190141EA127176
:1022B000100102460B462146511AB962294663EBCA
:1022C0000103FB624FF000024FF00003D7E90A89D7
:1022D00049468B00414643EA917341468A001046C5
:1022E0001946034622469B18C7F8B8302B460A46C3
:1022F00042EB0303C7F8BC304FF000024FF000037D
:10230000D7E92E4521460A09294642EA01722946A3
:102310000B11C7E96223D7F87031A3F5FA63DA1716
:10232000C7F8B030C7F8B420D7F87031A3F5FA6316
:10233000DA17C7F8A830C7F8AC20D7E92C452B46E8
:10234000D7E92A89424602FB03F24B46214601FBAC
:1023500003F3134422464146A2FB0112C7F83C2175
:102360000A46C7F83821D7F83C211344C7F83C3156
:10237000D7E94E4522462B464FF000004FF00001B2
:10238000D90041EA5271D00002460B462146511A4B
:102390003962294663EB01037B624FF000024FF084
:1023A0000003D7E9088949468B00414643EA917307
:1023B00041468A0010461946034622469B18C7F834
:1023C000A0302B460A4642EB0303C7F8A4304FF077
:1023D00000024FF00003D7E9284521460A092946A3
:1023E00042EA017229460B11C7E96023D7F8702130
:1023F000034B9A4280F2FE8006E000BF00090024F1
:1024000024FAFFFF0000C842D7F8703103F2DC5312
:10241000DA17C7F89830C7F89C20D7F8703103F264
:10242000DC53DA17C7F89030C7F89420D7E926456F
:102430002B46D7E92489424602FB03F24B4621464C
:1024400001FB03F3134422464146A2FB0112C7F8E5
:1024500034210A46C7F83021D7F834211344C7F88D
:102460003431D7E94C4522462B464FF000004FF05F
:102470000001190141EA1271100102460B46214682
:102480005118C7F88810294643EB0101C7F88C1092
:10249000D7E96223D7E9224521465118B961294677
:1024A00043EB0101F961D7E90634C7E96234D7F893
:1024B000703103F2DC53DA17C7F88030C7F8842094
:1024C000D7F8703103F2DC53DA17BB67FA67D7E944
:1024D00020452B46D7E91E89424602FB03F24B46B4
:1024E000214601FB03F3134422464146A2FB01129D
:1024F000C7F82C210A46C7F82821D7F82C21134405
:10250000C7F82C31D7E94A4522462B464FF0000048
:102510004FF00001D90041EA5271D00002460B464B
:10252000214651183967294643EB01017967D7E9FC
:102530006023D7E91C45214651183961294643EBF0
:1025400001017961D7E90434C7E9603452E0D7F872
:102550007431DA17BB66FA66D7F87431DA173B665E
:102560007A66D7E91A452B46D7E91889424602FB15
:1025700003F24B46214601FB03F313442246414636
:10258000A2FB0112C7F824210A46C7F82021D7F878
:1025900024211344C7F82431D7E9484522462B4665
:1025A0004FF000004FF00001990041EA9271900055
:1025B00002460B4621465118B965294643EB0101F5
:1025C000F9654FF000024FF00003D7E916452946A0
:1025D0008A112946CB171346C7F894314FF00002F1
:1025E0004FF00003C7E962234FF000024FF00003F1
:1025F000C7E96023D7F87021D7F89431D31AC7F808
:102600007031D7E95A01D7E96223841ABC6061EBC3
:102610000303FB60D7E90234C7E95A34D7E958010C
:10262000D7E96023841A3C6061EB03037B60D7E940
:102630000034C7E95834D7F8703107EE903AB8EE55
:10264000E77A5FED906AC7EE267AD7F85431C3ED8A
:102650005C7AD7F87C3100223B657A65D7F8603127
:10266000D7E914452A4602FB03F2D7F86431214624
:1026700001FB03F31344D7F860212146A2FB0112AA
:10268000C7F81C210A46C7F81821D7F81C211344A3
:10269000C7F81C314FF000024FF00003D7E9464560
:1026A00021464A0D294642EAC12229464B15D7E95F
:1026B0005A01141ABC6463EB0103FB644FF000027F
:1026C0004FF00003D7E912452146CA0B294642EADA
:1026D00041422946CB131346C7F85C31D7F85C3129
:1026E00007EE903AB8EEE77A5FEDBA6AC7EE267A5F
:1026F000D7F85431C3ED5B7A0123184607F5CC7740
:10270000BD46BDE8B08F00BF80B588B004AF0346BA
:10271000FB710B46BB7113467B71E623BB816423BF
:1027200002930123019307F10E0300930123E72293
:1027300080210D4801F0AAFCE6233B73FA79BB79AE
:102740001343DAB27B791343FB73FB7B7B7307F193
:102750000C026423009302238021034801F088FACD
:1027600000BF1037BD4680BDF005002480B586B09F
:1027700004AF6423029301230193FB1D0093012303
:10278000E7228021034801F081FCFB7918460837D5
:10279000BD4680BDF005002480B586B002AF7860EC
:1027A000F5237B7307F10D0264230093012380213D
:1027B000154801F05DFA0520FEF70AFD07F1080251
:1027C0004FF47A730093032380210F4801F068FBD4
:1027D0003B7A1B029BB27A7A13449AB27B681A80C6
:1027E000BB7AFB737B681B88184600F0D3F803465E
:1027F000BB73BA7BFB7B9A4201D0002300E001232C
:1028000018461037BD4680BDF005002400000000CA
:1028100080B584B000AF78604FF47A7302228021D3
:10282000274801F04DFD0346002B01D000233CE07A
:1028300007F10E031846FFF7AFFF034683F00103CD
:10284000DBB2002B01D000232FE0FB891A46134690
:102850005B019B1A9B00134407EE903AB8EEE77AAF
:10286000DFED186AC7EE267AB1EE087A77EEC77AFE
:102870007B68C3ED5D7A7B68D3ED5D7AB7EEE76A7E
:102880007B68D3ED5C7AB3EE047A77EE677AB7EEC5
:10289000E77A9FED095B27EE057B36EE077BF7EEC7
:1028A000C77B7B68C3ED5D7A012318461037BD46B0
:1028B00080BD00BFAFF300800AD7A3703D0AC7BF39
:1028C000F00500240000804780B485B000AF786038
:1028D0000023BB817B681B883B817B681B88C3F31B
:1028E0000B039AB27B681A807B680E3300221A8031
:1028F0000023FB733CE0FB7B03F00103DBB2002B06
:102900000FD0FB7B5B08DBB25B007A6813441B884B
:102910001BB2DBB21AB2B7F90C3053401BB2BB8109
:102920000BE0FB7B5B08DBB25B007A6813441B881F
:102930001B0A9AB2BB895340BB810823FB7211E08A
:10294000B7F90C30002B07DABB895B001BB283F4AC
:1029500040531BB2BB8102E0BB895B00BB81FB7AA9
:10296000013BFB72FB7A002BEAD1FB7B0133FB734B
:10297000FB7B0F2BBFD9BB891B0BBB817B683A89C3
:102980001A80BB89DBB218461437BD465DF8047B5C
:102990007047000080B487B000AF0346FB80174B40
:1029A0007B614FF400033B61154BFB60FB881B020E
:1029B000BB6018E0BA683B691340002B0AD0BA68C4
:1029C0007B695A40FB681A40FB68D943BB680B40DF
:1029D0001343BB603B695B083B61FB685B08FB60C2
:1029E0007B695B087B613B69802BE3D1BB68DBB211
:1029F00018461C37BD465DF8047B70470080980080
:102A00000080FF0080B483B000AF0A4BD3F8F430ED
:102A1000084A43F00203C2F8F430064BD3F8F4300E
:102A200003F002037B607B6800BF0C37BD465DF896
:102A3000047B70470044025880B5BAB000AF78609C
:102A400007F1D40300221A605A609A60DA601A61B2
:102A500007F11003C0220021184607F017FE7B681B
:102A60001B68274A934246D14FF008024FF00003FB
:102A7000C7E904230023C7F8943007F11003184670
:102A800003F0D6F80346002B01D0FEF785FE1D4B60
:102A9000D3F8E0301B4A43F08003C2F8E030194B12
:102AA000D3F8E03003F08003FB60FB684FF4C073A1
:102AB000C7F8D4301223C7F8D8300023C7F8DC3069
:102AC0000023C7F8E0300423C7F8E43007F1D4034B
:102AD00019460D4800F05CFD0A4BD3F8E830094A6E
:102AE00043F40003C2F8E830064BD3F8E83003F4AF
:102AF0000003BB60BB6800BFE837BD4680BD00BFB8
:102B0000005C004000440258001C025880B5BCB074
:102B100000AF786007F1DC0300221A605A609A6007
:102B2000DA601A6107F11803C0220021184607F085
:102B3000ADFD7B681B68384A934269D14FF400525F
:102B40004FF00003C7E906230023FB6707F11803D2
:102B5000184603F06DF80346002B01D0FEF71CFE6B
:102B60002E4BD3F8F0302D4A43F48013C2F8F030E6
:102B70002A4BD3F8F03003F480137B617B69274B39
:102B8000D3F8E030254A43F48063C2F8E030234BA9
:102B9000D3F8E03003F480633B613B691F4BD3F80B
:102BA000E0301E4A43F40073C2F8E0301B4BD3F808
:102BB000E03003F40073FB60FB680123C7F8DC30EE
:102BC0000223C7F8E0300023C7F8E4300023C7F839
:102BD000E8300523C7F8EC3007F1DC03194610484C
:102BE00000F0D6FC4FF44063C7F8DC300223C7F88E
:102BF000E0300023C7F8E4300023C7F8E8300523AD
:102C0000C7F8EC3007F1DC031946064800F0C0FCB9
:102C100000BFF037BD4680BD00500140004402585F
:102C2000002802580024025880B582B000AF7860B6
:102C30007B681B680B4A934210D10B4BD3F8F030E2
:102C4000094A23F48013C2F8F0300121074800F04C
:102C50004FFE4FF44061064800F04AFE00BF0837BF
:102C6000BD4680BD00500140004402580028025873
:102C70000024025880B5BAB000AF786007F1D403E1
:102C800000221A605A609A60DA601A6107F1100334
:102C9000C0220021184607F0F9FC7B681B68274A10
:102CA000934246D14FF002024FF00003C7E90423DC
:102CB0000023C7F8883007F11003184602F0B8FF68
:102CC0000346002B01D0FEF767FD1D4BD3F8E8301B
:102CD0001B4A43F00043C2F8E830194BD3F8E83000
:102CE00003F00043FB60FB68154BD3F8E030144A57
:102CF00043F40073C2F8E030114BD3F8E03003F432
:102D00000073BB60BB684FF44073C7F8D430022334
:102D1000C7F8D8300023C7F8DC300023C7F8E0300C
:102D20000823C7F8E43007F1D4031946054800F03A
:102D30002FFC00BFE837BD4680BD00BF007C0040CF
:102D4000004402580024025880B400AF00BFFDE7E1
:102D500080B400AF00BFFDE780B400AF00BFFDE767
:102D600080B400AF00BFFDE780B400AF00BFFDE757
:102D700080B400AF00BFBD465DF8047B704780B4EF
:102D800000AF00BFBD465DF8047B704780B400AF64
:102D900000BFBD465DF8047B704780B500AF00F012
:102DA0001FFA00BF80BD80B400AF01231846BD46A6
:102DB0005DF8047B704780B582B000AF7860396001
:102DC00007F0C6FC034616221A604FF0FF33184680
:102DD0000837BD4680BD80B582B000AF78604FF047
:102DE000FF317868FFF7E7FF00BFFDE780B586B0E9
:102DF00000AFF860B9607A6000237B610AE0AFF34E
:102E000000800146BB685A1CBA60CAB21A707B695E
:102E100001337B617A697B689A42F0DB7B681846F4
:102E20001837BD4680BD80B586B000AFF860B96088
:102E30007A6000237B6109E0BB685A1CBA601B788A
:102E40001846FEF7D1F97B6901337B617A697B68AB
:102E50009A42F1DB7B6818461837BD4680BD80B4C6
:102E600083B000AF78604FF0FF3318460C37BD4693
:102E70005DF8047B704780B483B000AF7860396040
:102E80003B684FF400525A60002318460C37BD4689
:102E90005DF8047B704780B483B000AF7860012395
:102EA00018460C37BD465DF8047B704780B485B08A
:102EB00000AFF860B9607A60002318461437BD4649
:102EC0005DF8047B7047000080B586B000AF786085
:102ED000144A154BD31A7B617B693B61134B1B680A
:102EE000002B02D1114B124A1A60104B1A687B68F2
:102EF00013443A699A4207D207F02AFC03460C228F
:102F00001A604FF0FF3309E0084B1B68FB60074B6A
:102F10001A687B681344054A1360FB681846183723
:102F2000BD4680BD000008240008000010090024F0
:102F3000680A002480B400AF434BD3F88830424A7B
:102F400043F47003C2F88830404B1B6803F00F0352
:102F5000062B07D83D4B1B6823F00F033B4A43F079
:102F6000070313603A4B1B68394A43F001031360AF
:102F7000374B00221A61364B1A683549354B1340DE
:102F80000B60324B1B6803F00803002B07D02F4B5C
:102F90001B6823F00F032D4A43F0070313602C4BEB
:102FA00000229A612A4B0022DA61294B00221A6220
:102FB000274B294A9A62264B284ADA62244B284A30
:102FC0001A63234B00225A63214B254A9A63204BF4
:102FD0000022DA631E4B224A1A641D4B00225A64F7
:102FE0001B4B1B681A4A23F480231360184B0022E2
:102FF0001A661C4B1A681C4B1340B3F1005F02D2D7
:103000001A4B01221A60124BD3F8D43003F48053C8
:10301000002B13D10E4BD3F8D4300D4A43F4805318
:10302000C2F8D430124B43F2D2021A60084BD3F8E4
:10303000D430074A23F48053C2F8D43000BFBD46D1
:103040005DF8047B704700BF00ED00E000200052F7
:10305000004402587FEDF6EA000202020000FF0180
:10306000800201010010005C0000FFFF0881005198
:103070000040005280B400AF094BDB68084A43F0BF
:103080000203D36000BF064B5B6803F40053002BC0
:10309000F9D000BF00BFBD465DF8047B704700BF9C
:1030A00000480258DFF838D0FFF7E4FFFFF742FF8F
:1030B0000C480D490D4A002302E0D458C450043393
:1030C000C4188C42F9D30A4A0A4C002301E0136069
:1030D0000432A242FBD307F041FBFEF797F870479A
:1030E00000000824000000242002002418CA000860
:1030F00020020024640A0024FEE7000080B582B0AC
:1031000000AF032000F08CF902F0BCFB0246154B27
:103110009B691B0A03F00F031349CB5C03F01F03E9
:1031200022FA03F37B600F4B9B6903F00F030E4AF7
:10313000D35C03F01F037A6822FA03F30B4A13608F
:103140000B4A7B6813600F2000F014F80346002B35
:1031500001D0012302E0FFF755FC00231846083791
:10316000BD4680BD004402585CC600084C000024E7
:103170004800002480B582B000AF7860154B1B7802
:10318000002B01D1012321E0134B1A68114B1B784E
:1031900019464FF47A73B3FBF1F3B2FBF3F318461D
:1031A00000F071F90346002B01D001230EE07B688B
:1031B0000F2B0AD8002279684FF0FF3000F03BF95E
:1031C000064A7B681360002300E001231846083795
:1031D000BD4680BD54000024480000245000002457
:1031E00080B400AF064B1B781A46064B1B6813448D
:1031F000044A136000BFBD465DF8047B704700BF02
:10320000540000241409002480B400AF034B1B6851
:103210001846BD465DF8047B704700BF14090024C2
:1032200080B584B000AF7860FFF7EEFFB8607B68D0
:10323000FB60FB68B3F1FF3F05D00A4B1B781A46D1
:10324000FB681344FB6000BFFFF7DEFF0246BB686C
:10325000D31AFA689A42F7D800BF00BF1037BD46AC
:1032600080BD00BF5400002480B400AF034B1B6836
:103270001B0C1846BD465DF8047B70470010005CCF
:1032800080B485B000AF78607B6803F00703FB6013
:103290000B4BDB68BB60BA684FF6FF031340BB60A3
:1032A000FB681A02BB681A43064B1343BB60044A0F
:1032B000BB68D36000BF1437BD465DF8047B704720
:1032C00000ED00E00000FA0580B400AF044BDB68BD
:1032D0001B0A03F007031846BD465DF8047B7047E0
:1032E00000ED00E080B483B000AF0346FB80B7F987
:1032F0000630002B0BDBFB8803F01F020749B7F9F0
:1033000006305B09012000FA02F241F8232000BFD9
:103310000C37BD465DF8047B704700BF00E100E05C
:1033200080B483B000AF03463960FB80B7F9063044
:10333000002B0ADB3B68DAB20C49B7F90630120100
:10334000D2B20B4483F800230AE03B68DAB20849A2
:10335000FB8803F00F03043B1201D2B20B441A7630
:1033600000BF0C37BD465DF8047B704700E100E00C
:1033700000ED00E080B489B000AFF860B9607A6019
:10338000FB6803F00703FB61FB69C3F10703042B30
:1033900028BF0423BB61FB690433062B02D9FB69F8
:1033A000033B00E000237B614FF0FF32BB6902FA70
:1033B00003F3DA43BB681A407B699A404FF0FF3150
:1033C0007B6901FA03F3D9437B680B40134318462A
:1033D0002437BD465DF8047B7047000080B582B09D
:1033E00000AF78607B68013BB3F1807F01D301239C
:1033F0000FE00A4A7B68013B53600F214FF0FF301A
:10340000FFF78EFF054B00229A60044B07221A60DB
:10341000002318460837BD4680BD00BF10E000E01D
:1034200080B582B000AF78607868FFF729FF00BFF1
:103430000837BD4680BD80B586B000AF0346B96091
:103440007A60FB81FFF740FF78617A68B968786934
:10345000FFF790FF0246B7F90E3011461846FFF706
:103460005FFF00BF1837BD4680BD80B582B000AF9A
:103470000346FB80B7F906301846FFF733FF00BF5D
:103480000837BD4680BD80B582B000AF78607868EF
:10349000FFF7A4FF034618460837BD4680BD00006D
:1034A00080B400AFBFF35F8F00BF074B5B6A064A73
:1034B00023F480335362054B00225A6000BFBD469F
:1034C0005DF8047B704700BF00ED00E090ED00E088
:1034D00080B483B000AF78600B4A7B6843F001038F
:1034E00053600A4B5B6A094A43F480335362BFF36B
:1034F0004F8F00BFBFF36F8F00BF00BF0C37BD46BB
:103500005DF8047B704700BF90ED00E000ED00E047
:1035100080B483B000AF78607B685A781B4B9A60A8
:103520001A4B1B69194A23F001031361174A7B6880
:103530005B68D3607B681B7B1A077B68DB7A1B06A2
:103540001A437B689B7ADB041A437B685B7B9B0492
:103550001A437B689B7B5B041A437B68DB7B1B0401
:103560001A437B685B7A1B021A437B681B7A5B00F9
:1035700013437A6812781146044A0B43136100BF63
:103580000C37BD465DF8047B704700BF90ED00E04E
:1035900080B489B000AF786039600023FB61894B4B
:1035A0007B6194E13B681A680121FB6901FA03F32E
:1035B00013403B613B69002B00F086813B685B68F0
:1035C00003F00303012B05D03B685B6803F00303A2
:1035D000022B30D17B689B68BB61FB695B000322D7
:1035E00002FA03F3DB43BA691340BB613B68DA6854
:1035F000FB695B0002FA03F3BA691343BB617B68A2
:10360000BA699A607B685B68BB610122FB6902FA58
:1036100003F3DB43BA691340BB613B685B681B097A
:1036200003F00102FB6902FA03F3BA691343BB61B9
:103630007B68BA695A603B685B6803F00303032B3D
:1036400017D07B68DB68BB61FB695B00032202FA71
:1036500003F3DB43BA691340BB613B689A68FB69BB
:103660005B0002FA03F3BA691343BB617B68BA6972
:10367000DA603B685B6803F00303022B23D1FB692C
:10368000DA087B68083253F82230BB61FB6903F02B
:1036900007039B000F2202FA03F3DB43BA691340CE
:1036A000BB613B681A69FB6903F007039B0002FAE0
:1036B00003F3BA691343BB61FB69DA087B6808321C
:1036C000B96943F822107B681B68BB61FB695B002A
:1036D000032202FA03F3DB43BA691340BB613B6880
:1036E0005B6803F00302FB695B0002FA03F3BA694B
:1036F0001343BB617B68BA691A603B685B6803F47B
:103700004033002B00F0E0802F4BD3F8F4302E4AEA
:1037100043F00203C2F8F4302B4BD3F8F43003F03B
:103720000203FB60FB68294AFB699B08023352F8DD
:103730002330BB61FB6903F003039B000F2202FAF5
:1037400003F3DB43BA691340BB617B68204A9342B1
:1037500052D07B681F4A934231D07B681E4A934205
:103760002BD07B681D4A934225D07B681C4A93422C
:103770001FD07B681B4A934219D07B681A4A934238
:1037800013D07B68194A93420DD07B68184A934244
:1037900007D07B68174A934201D109232DE00A2301
:1037A0002BE0082329E0072327E0062325E0052353
:1037B00023E0042321E003231FE002231DE0012373
:1037C0001BE000BF8000005800440258000400586D
:1037D000000002580004025800080258000C025869
:1037E000001002580014025800180258001C025819
:1037F00000200258002402580023FA6902F0030254
:1038000092009340BA691343BB613849FB699B0836
:103810000233BA6941F823204FF0B0431B68BB6103
:103820003B69DB43BA691340BB613B685B6803F4E7
:103830008013002B03D0BA693B691343BB614FF07F
:10384000B042BB6913604FF0B0435B68BB613B693A
:10385000DB43BA691340BB613B685B6803F4001348
:10386000002B03D0BA693B691343BB614FF0B042F0
:10387000BB6953607B695B68BB613B69DB43BA69C9
:103880001340BB613B685B6803F40033002B03D03B
:10389000BA693B691343BB617B69BA695A607B694A
:1038A0001B68BB613B69DB43BA691340BB613B6882
:1038B0005B6803F48033002B03D0BA693B69134380
:1038C000BB617B69BA691A60FB690133FB613B68C4
:1038D0001A68FB6922FA03F3002B7FF463AE00BF82
:1038E00000BF2437BD465DF8047B704700040058D4
:1038F00080B487B000AF7860396000237B61754B7E
:103900003B61D9E001227B6902FA03F33A68134074
:10391000FB60FB68002B00F0CC806F4A7B699B0842
:10392000023352F82330BB607B6903F003039B0032
:103930000F2202FA03F3BA681340BB607B68674A40
:10394000934237D07B68664A934231D07B68654AA0
:1039500093422BD07B68644A934225D07B68634AAC
:1039600093421FD07B68624A934219D07B68614AB8
:10397000934213D07B68604A93420DD07B685F4AC4
:10398000934207D07B685E4A934201D1092312E03B
:103990000A2310E008230EE007230CE006230AE0C8
:1039A000052308E0042306E0032304E0022302E0E9
:1039B000012300E000237A6902F0030292009340A1
:1039C000BA689A4236D13B691A68FB68DB431A40F1
:1039D0003B691A603B695A68FB68DB431A403B69E4
:1039E0005A604FF0B0435A68FB68DB434FF0B04178
:1039F00013404B604FF0B0431A68FB68DB434FF055
:103A0000B04113400B607B6903F003039B000F225E
:103A100002FA03F3BB60304A7B699B08023352F819
:103A20002310BB68DA432C487B699B080A400233A9
:103A300040F823207B681A687B695B00032101FA48
:103A400003F31A437B681A607B69DA087B680832E3
:103A500053F822107B6903F007039B000F2202FA40
:103A600003F3DB437A69D20819407B68083243F8D4
:103A700022107B68DA687B695B00032101FA03F39B
:103A8000DB431A407B68DA607B685A6801217B69F6
:103A900001FA03F3DB431A407B685A607B689A683B
:103AA0007B695B00032101FA03F3DB431A407B6867
:103AB0009A607B6901337B613A687B6922FA03F380
:103AC000002B7FF41FAF00BF00BF1C37BD465DF861
:103AD000047B704780000058000400580000025822
:103AE0000004025800080258000C02580010025846
:103AF0000014025800180258001C025800200258F6
:103B00000024025880B483B000AF78600B467B80FD
:103B100013467B707B78002B03D07A887B689A6190
:103B200003E07B881A047B689A6100BF0C37BD46AE
:103B30005DF8047B7047000080B582B000AF78600C
:103B40007B68002B01D101238BE07B6893F8413027
:103B5000DBB2002B06D17B68002283F84020786816
:103B6000FEF76AFF7B68242283F841207B681B688C
:103B70001A687B681B6822F001021A607B685A6829
:103B80007B681B6822F070621A617B681B689A6808
:103B90007B681B6822F400429A607B68DB68012B1B
:103BA00007D17B689A687B681B6842F400429A6080
:103BB00006E07B689A687B681B6842F404429A605E
:103BC0007B68DB68022B08D17B681B685A687B68BE
:103BD0001B6842F400625A6007E07B681B685A6801
:103BE0007B681B6822F400625A607B681B68596816
:103BF0007B681A681D4B0B4353607B681B68DA684F
:103C00007B681B6822F40042DA607B681A697B6873
:103C10005B6942EA03017B689B691A027B681B6847
:103C20000A43DA607B68D9697B681A6A7B681B681B
:103C30000A431A607B681B681A687B681B6842F03D
:103C400001021A607B6800225A647B68202283F894
:103C500041207B6800221A637B68002283F842209F
:103C6000002318460837BD4680BD00BF0080000213
:103C700080B588B002AFF8607A601A460B467B8147
:103C800013463B81FB6893F84130DBB2202B40F0B8
:103C9000FD80FB6893F84030012B01D10223F6E050
:103CA000FB68012283F84020FFF7AEFA38613B69D8
:103CB0000093192301224FF40041F86800F07EFCC4
:103CC0000346002B01D00123E1E0FB68212283F8A9
:103CD0004120FB68102283F84220FB6800225A64CE
:103CE000FB687A685A62FB683A895A85FB68002249
:103CF0005A63FB685B8D9BB2FF2B06D9FB68FF22E2
:103D00001A854FF080737B6107E0FB685B8D9AB288
:103D1000FB681A854FF000737B61FB681B8D002BDD
:103D200024D0FB685B6A1A78FB681B689A62FB68A0
:103D30005B6A5A1CFB685A62FB685B8D9BB2013B55
:103D40009AB2FB685A85FB681B8D013B9AB2FB68EF
:103D50001A85FB681B8DDBB20133DAB279894E4BD1
:103D600000937B69F86800F079FE66E0FB681B8DC4
:103D7000DAB27989484B00937B69F86800F06EFEEF
:103D80005BE03A69396AF86800F071FC0346002B81
:103D900001D001237BE0FB685B6A1A78FB681B6833
:103DA0009A62FB685B6A5A1CFB685A62FB685B8D0F
:103DB0009BB2013B9AB2FB685A85FB681B8D013BA5
:103DC0009AB2FB681A85FB685B8D9BB2002B34D0DE
:103DD000FB681B8D002B30D13B6900933B6A0022AE
:103DE0008021F86800F0EAFB0346002B01D0012394
:103DF0004DE0FB685B8D9BB2FF2B0ED9FB68FF2269
:103E00001A85FB681B8DDAB27989002300934FF085
:103E10008073F86800F022FE0FE0FB685B8D9AB2B9
:103E2000FB681A85FB681B8DDAB279890023009341
:103E30004FF00073F86800F011FEFB685B8D9BB2D9
:103E4000002B9ED13A69396AF86800F057FC0346A6
:103E5000002B01D001231AE0FB681B682022DA61E5
:103E6000FB681B685968FB681A680C4B0B40536071
:103E7000FB68202283F84120FB68002283F842205F
:103E8000FB68002283F84020002300E0022318464C
:103E90001837BD4680BD00BF0020008000E800FE4E
:103EA00080B588B002AFF8607A601A460B467B8115
:103EB00013463B81FB6893F84130DBB2202B40F086
:103EC000DB80FB6893F84030012B01D10223D4E062
:103ED000FB68012283F84020FFF796F978617B693F
:103EE0000093192301224FF40041F86800F066FBAB
:103EF0000346002B01D00123BFE0FB68222283F898
:103F00004120FB68102283F84220FB6800225A649B
:103F1000FB687A685A62FB683A895A85FB68002216
:103F20005A63FB685B8D9BB2FF2B0ED9FB68FF22A7
:103F30001A85FB681B8DDAB27989524B00934FF0DA
:103F40008073F86800F08AFD6DE0FB685B8D9AB2C3
:103F5000FB681A85FB681B8DDAB27989494B00939F
:103F60004FF00073F86800F079FD5CE07A69396A17
:103F7000F86800F007FC0346002B01D001237CE029
:103F8000FB681B685A6AFB685B6AD2B21A70FB68EE
:103F90005B6A5A1CFB685A62FB681B8D013B9AB234
:103FA000FB681A85FB685B8D9BB2013B9AB2FB688C
:103FB0005A85FB685B8D9BB2002B34D0FB681B8D50
:103FC000002B30D17B6900933B6A00228021F86886
:103FD00000F0F4FA0346002B01D001234DE0FB680A
:103FE0005B8D9BB2FF2B0ED9FB68FF221A85FB6805
:103FF0001B8DDAB27989002300934FF08073F86843
:1040000000F02CFD0FE0FB685B8D9AB2FB681A850F
:10401000FB681B8DDAB27989002300934FF000739F
:10402000F86800F01BFDFB685B8D9BB2002B9DD1F7
:104030007A69396AF86800F061FB0346002B01D009
:1040400001231AE0FB681B682022DA61FB681B6809
:104050005968FB681A680C4B0B405360FB682022C0
:1040600083F84120FB68002283F84220FB6800228D
:1040700083F84020002300E0022318461837BD468D
:1040800080BD00BF0024008000E800FE80B588B03D
:1040900002AFF860084611461A4603467B810B467C
:1040A0003B811346FB80FB6893F84130DBB2202B49
:1040B00040F0FD803B6A002B02D0BB8C002B05D169
:1040C000FB684FF400725A640123F1E0FB6893F837
:1040D0004030012B01D10223EAE0FB68012283F882
:1040E0004020FFF791F878617B6900931923012242
:1040F0004FF40041F86800F061FA0346002B01D04C
:104100000123D5E0FB68222283F84120FB6840228E
:1041100083F84220FB6800225A64FB683A6A5A62BC
:10412000FB68BA8C5A85FB6800225A63F8883A8982
:1041300079897B690193BB6A00930346F86800F0B4
:10414000C5F90346002B05D0FB68002283F8402008
:104150000123ADE0FB685B8D9BB2FF2B0ED9FB68A2
:10416000FF221A85FB681B8DDAB27989524B0093C6
:104170004FF08073F86800F071FC0FE0FB685B8D16
:104180009AB2FB681A85FB681B8DDAB279894A4BB3
:1041900000934FF00073F86800F060FC7B690093B7
:1041A000BB6A00220421F86800F008FA0346002BDD
:1041B00001D001237CE0FB681B685A6AFB685B6ADC
:1041C000D2B21A70FB685B6A5A1CFB685A62FB68C1
:1041D0001B8D013B9AB2FB681A85FB685B8D9BB215
:1041E000013B9AB2FB685A85FB685B8D9BB2002B42
:1041F00034D0FB681B8D002B30D17B690093BB6AE8
:1042000000228021F86800F0D9F90346002B01D084
:1042100001234DE0FB685B8D9BB2FF2B0ED9FB6841
:10422000FF221A85FB681B8DDAB27989002300937F
:104230004FF08073F86800F011FC0FE0FB685B8DB5
:104240009AB2FB681A85FB681B8DDAB27989002364
:1042500000934FF00073F86800F000FCFB685B8D82
:104260009BB2002B9AD17A69B96AF86800F046FAD5
:104270000346002B01D001231AE0FB681B682022B3
:10428000DA61FB681B685968FB681A680B4B0B40C6
:104290005360FB68202283F84120FB68002283F8EA
:1042A0004220FB68002283F84020002300E0022324
:1042B00018461837BD4680BD0024008000E800FE87
:1042C00080B58AB002AFF8607A603B600B467B81B4
:1042D00000237B610023FB77FB6893F84130DBB25E
:1042E000202B40F0E980FB681B689B6903F40043C6
:1042F000B3F5004F01D10223DFE0FB6893F84030B3
:10430000012B01D10223D8E0FB68012283F8402071
:10431000FB68242283F84120FB6800225A64FB6872
:10432000DB68012B05D17B89C3F30902654B13437D
:1043300004E07B89C3F30902634B1343FA681268F4
:104340005360FEF761FFB861FB681B689B6903F06F
:104350002003202B0CBF01230023DBB2BB77FB68BB
:104360001B689B6903F01003102B0CBF0123002373
:10437000DBB27B7734E03B68B3F1FF3F1AD0FEF746
:1043800043FF0246BB69D31A3A689A4202D33B689C
:10439000002B0FD1FB68202283F84120FB685B6C67
:1043A00043F02002FB685A64FB68002283F8402037
:1043B000012382E0FB681B689B6903F02003202B2C
:1043C0000CBF01230023DBB2BB77FB681B689B6932
:1043D00003F01003102B0CBF01230023DBB27B770B
:1043E000BB7F002B02D17B7F002BC4D0FB681B68F6
:1043F0009B6903F01003102B27D0BB6900933B6827
:1044000000222021F86800F0D9F80346002B0ED0D6
:10441000FB685B6C042B07D1FB681B682022DA6108
:10442000FB6800225A6426E00123FB7723E0FB6847
:104430001B682022DA61FB68202283F84120FB6898
:10444000002283F84020002337E0FB681B6810221D
:10445000DA61BB6900933B6800222021F86800F014
:10446000ADF80346002B02D00123FB7703E0FB6885
:104470001B682022DA617B6901337B617B697A6882
:104480009A4204D9FB7F012B01D10023FB777B6982
:104490007A689A423FF643AFFB68202283F84120B6
:1044A000FB685B6C43F02002FB685A64FB680022E7
:1044B00083F84020012300E0022318462037BD4640
:1044C00080BD00BF002000020028000280B586B039
:1044D00002AFF860084611461A4603467B810B4638
:1044E0003B811346FB80FB88DAB27989204B00932D
:1044F0000023F86800F0B2FAFA69B969F86800F0C8
:10450000B6F80346002B01D001232CE0FB88012BD9
:1045100005D13B89DAB2FB681B689A6215E03B89DA
:104520001B0A9BB2DAB2FB681B689A62FA69B96926
:10453000F86800F09CF80346002B01D0012312E03C
:104540003B89DAB2FB681B689A62FB690093BB691E
:1045500000224021F86800F031F80346002B01D01A
:10456000012300E0002318461037BD4680BD00BF80
:104570000020008080B483B000AF78607B681B6847
:104580009B6903F00203022B03D17B681B680022A6
:104590009A627B681B689B6903F00103012B07D0BB
:1045A0007B681B689A697B681B6842F001029A610C
:1045B00000BF0C37BD465DF8047B704780B584B002
:1045C00000AFF860B9603B601346FB713BE0BA692D
:1045D0003968F86800F062F90346002B01D0012326
:1045E00041E03B68B3F1FF3F2DD0FEF70DFE0246E0
:1045F000BB69D31A3A689A4202D33B68002B22D196
:10460000FB681B689A69BB681340BA689A420CBF82
:1046100001230023DBB21A46FB799A4213D1FB68CF
:104620005B6C43F02002FB685A64FB68202283F82D
:104630004120FB68002283F84220FB68002283F8B7
:10464000402001230FE0FB681B689A69BB68134098
:10465000BA689A420CBF01230023DBB21A46FB79E9
:104660009A42B4D0002318461037BD4680BD80B5AD
:1046700084B000AFF860B9607A6033E07A68B968F6
:10468000F86800F00BF90346002B01D0012331E05C
:10469000BB68B3F1FF3F25D0FEF7B6FD02467B684D
:1046A000D31ABA689A4202D3BB68002B1AD1FB68AE
:1046B0001B689B6903F00203022B13D0FB685B6C41
:1046C00043F02002FB685A64FB68202283F84120F3
:1046D000FB68002283F84220FB68002283F8402018
:1046E000012307E0FB681B689B6903F00203022BB0
:1046F000C4D1002318461037BD4680BD80B584B0B4
:1047000000AFF860B9607A602FE07A68B968F8683D
:1047100000F0C4F80346002B01D001232DE0FEF782
:1047200073FD02467B68D31ABA689A4202D3BB680B
:10473000002B1AD1FB681B689B6903F02003202B18
:1047400013D0FB685B6C43F02002FB685A64FB6883
:10475000202283F84120FB68002283F84220FB6876
:10476000002283F84020012307E0FB681B689B6957
:1047700003F02003202BC8D1002318461037BD4674
:1047800080BD000080B586B000AFF860B9607A6087
:104790000023FB7571E07A68B968F86800F07EF86C
:1047A0000346002B01D00123FB75FB681B689B6946
:1047B00003F02003202B3BD1FB7D002B38D1FB687D
:1047C0001B689B6903F00403042B05D1FB681B8D58
:1047D000002B01D00023FB75FB681B689B6903F06D
:1047E0001003102B21D1FB681B681022DA61FB68D3
:1047F00004225A64FB681B682022DA61FB681B688C
:104800005968FB681A68244B0B405360FB682022F0
:1048100083F84120FB68002283F84220FB680022D5
:1048200083F840200123FB7502E0FB6800225A64F4
:10483000FEF7EAFC02467B68D31ABA689A4202D3B2
:10484000BB68002B19D1FB7D002B16D1FB681B68C0
:104850009B6903F00403042B0FD0FB685B6C43F0EF
:104860002002FB685A64FB68202283F84120FB6821
:10487000002283F840200123FB75FB681B689B69BD
:1048800003F00403042B02D0FB7D002B83D0FB7DBF
:1048900018461837BD4680BD00E800FE80B58AB0D6
:1048A00000AFF860B9607A60002387F82730FB68B2
:1048B0001B689B69BB6100233B627B68FB61BB6932
:1048C00003F01003002B68D0FB681B681022DA612C
:1048D00049E0BB68B3F1FF3F45D0FEF795FC0246C7
:1048E000FB69D31ABA689A4202D3BB68002B3AD14B
:1048F000FB681B685B6803F480437B61FB6893F88B
:104900004230FB74FB681B689B6903F40043B3F5FA
:10491000004F21D17B69B3F5804F1DD0FB7C202B4C
:104920001AD0FB681B685A68FB681B6842F4804217
:104930005A60FEF769FCF8610EE0FEF765FC02467E
:10494000FB69D31A192B07D93B6A43F020033B625A
:10495000012387F8273006E0FB681B689B6903F09A
:104960002003202BE9D1FB681B689B6903F020031F
:10497000202B03D097F82730002BAAD097F82730A8
:10498000002B03D1FB681B682022DA613B6A43F0ED
:1049900004033B62012387F82730FB681B689B698F
:1049A000BB61BB6903F48073002B0BD03B6A43F0FF
:1049B00001033B62FB681B684FF48072DA610123DC
:1049C00087F82730BB6903F48063002B0BD03B6A68
:1049D00043F008033B62FB681B684FF48062DA61B6
:1049E000012387F82730BB6903F40073002B0BD039
:1049F0003B6A43F002033B62FB681B684FF40072A2
:104A0000DA61012387F8273097F82730002B1CD074
:104A1000F868FFF7AFFDFB681B685968FB681A6808
:104A20000D4B0B405360FB685A6C3B6A1A43FB68A2
:104A30005A64FB68202283F84120FB68002283F837
:104A40004220FB68002283F8402097F82730184660
:104A50002837BD4680BD00BF00E800FE80B487B0A7
:104A600000AFF8607B600B467B8113467B727B89CD
:104A7000C3F309027B7A1B0403F47F031A437B68A8
:104A80001A433B6A134323F000437B61FB681B68B6
:104A90005A683B6A5B0D03F48061084B0B43DB43B0
:104AA00002EA0301FB681B687A690A435A6000BF87
:104AB0001C37BD465DF8047B704700BFFF63FF03F2
:104AC00080B483B000AF786039607B6893F8413080
:104AD000DBB2202B38D17B6893F84030012B01D119
:104AE000022332E07B68012283F840207B68242285
:104AF00083F841207B681B681A687B681B6822F07A
:104B000001021A607B681B681A687B681B6822F4C4
:104B100080521A607B681B6819687B681B683A685A
:104B20000A431A607B681B681A687B681B6842F03E
:104B300001021A607B68202283F841207B680022F2
:104B400083F84020002300E0022318460C37BD46BE
:104B50005DF8047B704780B485B000AF7860396041
:104B60007B6893F84130DBB2202B39D17B6893F816
:104B70004030012B01D1022333E07B68012283F80E
:104B800040207B68242283F841207B681B681A68D8
:104B90007B681B6822F001021A607B681B681B6837
:104BA000FB60FB6823F47063FB603B681B02FA68E0
:104BB0001343FB607B681B68FA681A607B681B689C
:104BC0001A687B681B6842F001021A607B68202229
:104BD00083F841207B68002283F84020002300E016
:104BE000022318461437BD465DF8047B7047000069
:104BF00080B584B000AF7860194BDB6803F0040324
:104C0000042B0AD0164BDB6803F007037A689A423C
:104C100001D001231FE000231DE0114BDB6823F0CE
:104C200007020F497B681343CB60FEF7EDFAF8608B
:104C300009E0FEF7E9FA0246FB68D31AB3F57A7F7A
:104C400001D9012307E0064B5B6803F40053B3F579
:104C5000005FEED1002318461037BD4680BD00BF6F
:104C60000048025880B58CB000AF78607B68002B9C
:104C700002D1012300F048BC7B681B6803F00103EC
:104C8000002B00F08880994B1B6903F03803FB620E
:104C9000964B9B6ABB62FB6A102B07D0FB6A182BF2
:104CA00011D1BB6A03F00303022B0CD18F4B1B689D
:104CB00003F40033002B6DD07B685B68002B69D157
:104CC000012300F021BC7B685B68B3F5803F06D10F
:104CD000864B1B68854A43F4803313602EE07B6863
:104CE0005B68002B0CD1814B1B68804A23F4803316
:104CF00013607E4B1B687D4A23F4802313601DE004
:104D00007B685B68B3F5A02F0CD1784B1B68774AA2
:104D100043F480231360754B1B68744A43F480335B
:104D200013600BE0714B1B68704A23F480331360EF
:104D30006E4B1B686D4A23F4802313607B685B68AD
:104D4000002B13D0FEF760FA786208E0FEF75CFAF9
:104D500002467B6AD31A642B01D90323D4E3634B45
:104D60001B6803F40033002BF0D014E0FEF74CFA7C
:104D7000786208E0FEF748FA02467B6AD31A642B91
:104D800001D90323C0E3594B1B6803F40033002B04
:104D9000F0D100E000BF7B681B6803F00203002B2A
:104DA00000F0CA80514B1B6903F038033B624F4B44
:104DB0009B6AFB613B6A002B07D03B6A182B56D1DC
:104DC000FB6903F00303002B51D1484B1B6803F030
:104DD0000403002B05D07B68DB68002B01D1012385
:104DE00092E3424B1B6823F019027B68DB683F4962
:104DF00013430B60FEF708FA786208E0FEF704FA46
:104E000002467B6AD31A022B01D903237CE3374B7A
:104E10001B6803F00403002BF0D0FEF725FA0346CD
:104E200041F20302934217D87B681B69402B08D1DB
:104E30002E4B5B6823F47C332C4A43F400335360DD
:104E40007AE02A4B5B6823F47C327B681B691B0386
:104E5000264913434B606FE0244B5B6823F0FE420E
:104E60007B681B691B06214913434B6064E07B6828
:104E7000DB68002B47D01D4B1B6823F019027B68B1
:104E8000DB681A4913430B60FEF7BEF9786208E04D
:104E9000FEF7BAF902467B6AD31A022B01D9032323
:104EA00032E3124B1B6803F00403002BF0D0FEF733
:104EB000DBF9034641F20302934219D87B681B6970
:104EC000402B08D1094B5B6823F47C33074A43F439
:104ED0000033536030E0054B5B6823F47C327B6821
:104EE0001B691B03014913434B6025E00044025832
:104EF0009A4B5B6823F0FE427B681B691B0697494F
:104F000013434B6018E0954B1B68944A23F0010350
:104F10001360FEF779F9786208E0FEF775F902464A
:104F20007B6AD31A022B01D90323EDE28B4B1B685A
:104F300003F00403002BF0D17B681B6803F010031F
:104F4000002B00F0A980854B1B6903F03803BB617F
:104F5000824B9B6A7B61BB69082B07D0BB69182B0E
:104F60003AD17B6903F00303012B35D17B4B1B68DE
:104F700003F48073002B05D07B68DB69802B01D0A4
:104F80000123C1E2FEF770F9034641F203029342A6
:104F900017D87B681B6A202B08D1704B5B6823F005
:104FA000F8436E4A43F08043536075E06B4B5B6897
:104FB00023F0F8427B681B6A9B06684913434B60E9
:104FC0006AE0664BDB6823F07C527B681B6A1B0639
:104FD00062491343CB605FE07B68DB69002B42D002
:104FE0005E4B1B685D4A43F080031360FEF70CF9CB
:104FF000786208E0FEF708F902467B6AD31A022BB2
:1050000001D9032380E2554B1B6803F48073002B06
:10501000F0D0FEF729F9034641F20302934217D874
:105020007B681B6A202B08D14C4B5B6823F0F8434C
:105030004A4A43F0804353602EE0484B5B6823F0BC
:10504000F8427B681B6A9B06444913434B6023E08C
:10505000424BDB6823F07C527B681B6A1B063F498E
:105060001343CB6018E03D4B1B683C4A23F08003A0
:105070001360FEF7C9F8786208E0FEF7C5F802464B
:105080007B6AD31A022B01D903233DE2334B1B6801
:1050900003F48073002BF0D17B681B6803F00803D6
:1050A000002B36D07B685B69002B19D02B4B5B6FD4
:1050B0002A4A43F001035367FEF7A6F8786208E036
:1050C000FEF7A2F802467B6AD31A022B01D903230A
:1050D0001AE2224B5B6F03F00203002BF0D018E0C2
:1050E0001E4B5B6F1D4A23F001035367FEF78CF8DC
:1050F000786208E0FEF788F802467B6AD31A022B32
:1051000001D9032300E2154B5B6F03F00203002B70
:10511000F0D17B681B6803F02003002B39D07B683B
:105120009B69002B1CD00D4B1B680C4A43F4805329
:105130001360FEF769F8786208E0FEF765F802464A
:105140007B6AD31A022B01D90323DDE1034B1B68D1
:1051500003F40053002BF0D01BE000BF00440258C2
:105160009B4B1B689A4A23F480531360FEF74CF85C
:10517000786208E0FEF748F802467B6AD31A022BF1
:1051800001D90323C0E1924B1B6803F40053002BA9
:10519000F0D17B681B6803F00403002B00F08180D2
:1051A0008C4B1B688B4A43F480731360FEF72CF81A
:1051B000786208E0FEF728F802467B6AD31A642B6F
:1051C00001D90323A0E1834B1B6803F48073002BF8
:1051D000F0D07B689B68012B06D17D4B1B6F7C4A0E
:1051E00043F0010313672DE07B689B68002B0CD113
:1051F000774B1B6F764A23F001031367744B1B6FC9
:10520000734A23F0040313671CE07B689B68052B3B
:105210000CD16F4B1B6F6E4A43F0040313676C4B4A
:105220001B6F6B4A43F0010313670BE0684B1B6F66
:10523000674A23F001031367654B1B6F644A23F031
:10524000040313677B689B68002B15D0FDF7DCFF18
:1052500078620AE0FDF7D8FF02467B6AD31A41F272
:105260008832934201D903234EE1594B1B6F03F05F
:105270000203002BEED014E0FDF7C6FF78620AE0CF
:10528000FDF7C2FF02467B6AD31A41F2883293428D
:1052900001D9032338E14E4B1B6F03F00203002BAF
:1052A000EED17B685B6A002B00F02D81484B1B69B7
:1052B00003F03803182B00F0BD807B685B6A022B7B
:1052C00040F09E80424B1B68414A23F0807313607C
:1052D000FDF79AFF786208E0FDF796FF02467B6AC9
:1052E000D31A022B01D903230EE1394B1B6803F0BB
:1052F0000073002BF0D1364B9A6A374B13407A6813
:10530000916A7A68D26A12010A43314913438B6267
:105310007B681B6B013BC3F308027B685B6B013B43
:105320005B029BB21A437B689B6B013B1B0403F43B
:10533000FE031A437B68DB6B013B1B0603F0FE4355
:10534000234913430B63224BDB6A214A23F00103F9
:10535000D3621F4B5A6B214B13407A68926CD20078
:105360001B4913434B631A4BDB6A23F00C027B6827
:105370001B6C17491343CB62154BDB6A23F0020207
:105380007B685B6C12491343CB62114BDB6A104A9A
:1053900043F48033D3620E4BDB6A0D4A43F400338F
:1053A000D3620B4BDB6A0A4A43F48023D362084B77
:1053B000DB6A074A43F00103D362054B1B68044ACA
:1053C00043F080731360FDF71FFF786211E000BFA8
:1053D00000440258004802580CFCFFFF0700FFFF82
:1053E000FDF712FF02467B6AD31A022B01D9032371
:1053F0008AE0474B1B6803F00073002BF0D082E07B
:10540000434B1B68424A23F080731360FDF7FCFE98
:10541000786208E0FDF7F8FE02467B6AD31A022B99
:1054200001D9032370E03A4B1B6803F00073002B93
:10543000F0D168E0364B9B6A3B61354B1B6BFB60E0
:105440007B685B6A012B31D03B6903F003027B6808
:105450009B6A9A422AD13B691B0903F03F027B6891
:10546000DB6A9A4222D1FB68C3F308027B681B6B9C
:10547000013B9A421AD1FB685B0A03F07F027B680A
:105480005B6B013B9A4211D1FB681B0C03F07F025E
:105490007B689B6B013B9A4208D1FB681B0E03F0B3
:1054A0007F027B68DB6B013B9A4201D001232BE03A
:1054B000174B5B6BDB08C3F30C033B617B689B6C96
:1054C0003A699A421FD0124BDB6A114A23F001035A
:1054D000D362FDF799FE786200BFFDF795FE0246A4
:1054E0007B6A9342F9D00A4B5A6B0A4B13407A6895
:1054F000926CD200064913434B63054BDB6A044AA6
:1055000043F00103D362002318463037BD4680BD07
:10551000004402580700FFFF80B586B000AF7860F6
:1055200039607B68002B01D101239CE18A4B1B6809
:1055300003F00F033A689A4210D9874B1B6823F097
:105540000F0285493B6813430B60834B1B6803F0D4
:105550000F033A689A4201D0012384E17B681B68FB
:1055600003F00403002B10D07B681A697B4B9B6906
:1055700003F070039A4208D9784B9B6923F07002BC
:105580007B681B69754913438B617B681B6803F05B
:105590000803002B10D07B685A69704BDB6903F05D
:1055A00070039A4208D96D4BDB6923F070027B6867
:1055B0005B696A491343CB617B681B6803F0100386
:1055C000002B10D07B689A69644BDB6903F4E063BD
:1055D0009A4208D9614BDB6923F4E0627B689B69DE
:1055E0005E491343CB617B681B6803F02003002BEB
:1055F00010D07B68DA69594B1B6A03F070039A423A
:1056000008D9564B1B6A23F070027B68DB6953494B
:1056100013430B627B681B6803F00203002B10D05E
:105620007B68DA684D4B9B6903F00F039A4208D9F7
:105630004A4B9B6923F00F027B68DB6847491343A1
:105640008B617B681B6803F00103002B55D0434B33
:105650009B6923F470627B689B68404913438B61AC
:105660007B685B68022B07D13C4B1B6803F400335B
:10567000002B21D10123F6E07B685B68032B07D167
:10568000364B1B6803F00073002B15D10123EAE0B1
:105690007B685B68012B07D1304B1B6803F4807378
:1056A000002B09D10123DEE02C4B1B6803F004031F
:1056B000002B01D10123D6E0284B1B6923F0070200
:1056C0007B685B68254913430B61FDF79DFD78619D
:1056D0000AE0FDF799FD02467B69D31A41F2883250
:1056E000934201D90323BEE01C4B1B6903F038022F
:1056F0007B685B68DB009A42EBD17B681B6803F038
:105700000203002B10D07B68DA68144B9B6903F00E
:105710000F039A4208D2114B9B6923F00F027B685A
:10572000DB680E4913438B610B4B1B6803F00F03BF
:105730003A689A4214D2084B1B6823F00F020649BC
:105740003B6813430B60044B1B6803F00F033A687C
:105750009A4205D0012386E00020005200440258FE
:105760007B681B6803F00403002B10D07B681A6968
:105770003F4B9B6903F070039A4208D23C4B9B69F4
:1057800023F070027B681B69394913438B617B6886
:105790001B6803F00803002B10D07B685A69344B58
:1057A000DB6903F070039A4208D2314BDB6923F0C6
:1057B00070027B685B692E491343CB617B681B6871
:1057C00003F01003002B10D07B689A69284BDB692B
:1057D00003F4E0639A4208D2254BDB6923F4E062CC
:1057E0007B689B6922491343CB617B681B6803F08C
:1057F0002003002B10D07B68DA691D4B1B6A03F075
:1058000070039A4208D21A4B1B6A23F070027B681D
:10581000DB69174913430B6200F034F80246144B5E
:105820009B691B0A03F00F031249CB5C03F01F03B3
:1058300022FA03F33B610E4B9B6903F00F030D4A01
:10584000D35C03F01F033A6922FA03F30A4A136098
:105850000A4A3B6913600A4B1B681846FDF78AFC2D
:105860000346FB73FB7B18461837BD4680BD00BF5F
:10587000004402585CC600084C0000244800002484
:105880005000002480B489B000AFB34B1B6903F013
:105890003803182B00F2558101A252F823F000BF03
:1058A00005590008435B0008435B0008435B0008A0
:1058B000435B0008435B0008435B0008435B000850
:1058C0002B590008435B0008435B0008435B00085A
:1058D000435B0008435B0008435B0008435B000830
:1058E00031590008435B0008435B0008435B000834
:1058F000435B0008435B0008435B0008435B000810
:1059000037590008944B1B6803F02003002B09D083
:10591000914B1B68DB0803F00303904A22FA03F360
:10592000BB6111E18D4BBB610EE18D4BBB610BE1A6
:105930008C4BBB6108E1884B9B6A03F003037B61DE
:10594000854B9B6A1B0903F03F033B61824BDB6A7B
:1059500003F00103FB60804B5B6BDB08C3F30C03BC
:10596000FA6802FB03F307EE903AF8EE677AC7EDA8
:10597000027A3B69002B00F0E1807B69022B00F08A
:1059800083807B69022B00F2A1807B69002B03D00E
:105990007B69012B56D099E06F4B1B6803F0200305
:1059A000002B2DD06C4B1B68DB0803F003036B4A04
:1059B00022FA03F37B607B6807EE903AF8EE676AA1
:1059C0003B6907EE903AF8EE677A86EEA77A624B6B
:1059D0001B6BC3F3080307EE903AF8EE676A97ED86
:1059E000026ADFED615AC6EE257A76EEA77AF7EE07
:1059F000006A77EEA67A67EE277AC7ED077A87E026
:105A00003B6907EE903AF8EE677ADFED586A86EE6A
:105A1000A77A514B1B6BC3F3080307EE903AF8EEDD
:105A2000676A97ED026ADFED505AC6EE257A76EE88
:105A3000A77AF7EE006A77EEA67A67EE277AC7EDC7
:105A4000077A65E03B6907EE903AF8EE677ADFED9A
:105A5000486A86EEA77A404B1B6BC3F3080307EE38
:105A6000903AF8EE676A97ED026ADFED3F5AC6EEAC
:105A7000257A76EEA77AF7EE006A77EEA67A67EED9
:105A8000277AC7ED077A43E03B6907EE903AF8EED4
:105A9000677ADFED386A86EEA77A2F4B1B6BC3F36C
:105AA000080307EE903AF8EE676A97ED026ADFEDB9
:105AB0002E5AC6EE257A76EEA77AF7EE006A77EED2
:105AC000A67A67EE277AC7ED077A21E03B6907EEF1
:105AD000903AF8EE677ADFED266A86EEA77A1E4BDB
